:020000040800F2
:1000000000500020910E00084D0700084F0700081F
:1000100051070008530700085507000800000000BA
:10002000000000000000000000000000570700086A
:1000300059070008000000005B0700085D07000882
:10004000D90E0008D90E0008D90E0008D90E0008F4
:10005000D90E0008D90E0008D90E0008D90E0008E4
:10006000D90E0008D90E0008D90E0008D90E0008D4
:10007000D90E0008D90E0008D90E0008D90E0008C4
:10008000D90E0008D90E0008D90E0008D90E0008B4
:10009000D90E0008D90E0008D90E0008D90E0008A4
:1000A000D90E0008D90E0008D90E0008D90E000894
:1000B000D90E0008C90D0008D90E0008D90E000895
:1000C000D90E0008D90E0008D90E0008D90E000874
:1000D000D90E0008D90E0008D90E0008D90E000864
:1000E000D90E0008D90E0008D90E00080000000043
:1000F0000000000000000000000000000000000000
:0C01000000000000000000005FF808F1A3
:10010C0010B5054C237833B9044B13B10448AFF345
:10011C0000800123237010BD6C0000200000000043
:10012C005C18000808B5034B1BB103490348AFF337
:10013C00008008BD00000000700000205C18000862
:10014C00034613F8012B002AFBD1181A013870470B
:10015C0010B5254A136823F0070343F0020313601C
:10016C00214B1B6803F00703022BF9D11F4A1368BC
:10017C0043F4803313601D4B1B6813F4003FFAD01B
:10018C001A4A536823F47C1343F4E813536013683E
:10019C0043F080731360154B1B6813F0007FFAD08B
:1001AC00124B5A6822F0F0025A605A6822F4E0624C
:1001BC0042F480625A605A6822F460525A605A685B
:1001CC0022F0030242F002025A60084B5B6803F013
:1001DC000C03082BF9D1064C204600F075FB204689
:1001EC0000F082FB10BD00BF002002400010024056
:1001FC0000A24A0470B586B0964B9A6942F001028F
:10020C009A619A6902F001020592059ADA6942F044
:10021C008052DA61DB6903F080530493049B8E4BAC
:10022C00D96821F4E0610904090C8C4A0A43DA60AC
:10023C00DB68C3F30223C3F10701042928BF04219F
:10024C001A1D062A01D9DA1E00E000224FF0FF33F6
:10025C008B40DB4303F00F0393401B01DBB27E4A60
:10026C0082F823307E4A536823F0E06343F0007336
:10027C005360FFF76DFF00F07FF900F015FA00F006
:10028C000DFD00F099FC42F2107000F0ABFD7548CA
:10029C0000F0F4FC744C754B1B68754A1421204615
:1002AC0000F048FE05221146204600F01DFC00F02F
:1002BC0063FC00F029FD002440E06E4B1B78002B02
:1002CC003AD16D4B1B78984236D001280FD00228BA
:1002DC0013D00023694A1370694A1370694A13706A
:1002EC00654B1870684B188800F054FD24E001230E
:1002FC00644A1370624A1370F2E70123614A137067
:10030C005E4A1370ECE75B4B1B78ABB95A4B1B780E
:10031C00984229D05B4B02221A705C4BDB6813F4B9
:10032C00005F26D1594B4FF400521A61524B187092
:10033C00554B188800F02EFD0134A4B2B4F57A7F29
:10034C00B9D200F07FF9524B18704E4B1B78032B2F
:10035C00F2D801A252F823F0C702000813030008D8
:10036C008903000813040008474B188800F012FD9D
:10037C00E2E7464B4FF400525A61D7E73D4B1B78EE
:10038C00002BD9D13C4B1B78984216D0022819D09F
:10039C00012825D00023394A1370394A1370364A84
:1003AC001070384A1370394BDB6813F4005F25D199
:1003BC00364B4FF400521A61BEE7334B188800F0ED
:1003CC00E9FCB9E72E4B1B78012BECD12D4B03220A
:1003DC001A70294B18702C4B188800F0DBFCE2E7E4
:1003EC00264B1B78012BDED1264B03221A70224B95
:1003FC001870254B188800F0CDFCD4E7234B4FF434
:10040C0000525A6198E71B4B1B78002B94D11A4B66
:10041C001B78984218D01A4B1B78012B3AD0174BEB
:10042C001B78012B5AD01A4B1A78134B1A70154B98
:10043C0000221A70154BDB6813F4005F72D1134B5A
:10044C004FF400521A6177E70F4B188800F0A2FCAA
:10045C0072E700BF0010024000ED00E00003FA0557
:10046C0000000140B4180008900000208800002013
:10047C00741800088D000020AB0000208C000020B8
:10048C008E000020A9000020000000200010014078
:10049C00AA000020264D2B68013B2B60002000F0A9
:1004AC0087FA244B1B78244A1278244E43EA020123
:1004BC000291019200932B68214A1921304600F0D9
:1004CC0039FD19220F21304600F00EFB00F054FBD1
:1004DC0000231C4A13701C4A1370A4E7144D2B689C
:1004EC0001332B60002000F063FA124B1B78124A88
:1004FC001278124E43EA02010291019200932B688A
:10050C00124A1921304600F015FD19220F213046F0
:10051C0000F0EAFA00F030FB00230A4A13700A4A92
:10052C00137080E70A4B4FF400525A6104E700BF86
:10053C0088000020AA000020AB00002090000020C2
:10054C00841800088C0000208E0000209C180008E5
:10055C0000100140064A13780133DBB21370054AD0
:10056C0000211170032B01D9014B1970704700BF8A
:10057C00A90000208D000020F0B58BB0002405945C
:10058C000694079408940994294B9A6942F0100236
:10059C009A619A6902F010020492049A9A6942F0E4
:1005AC0020029A619A6902F020020392039A9A69D6
:1005BC0042F004029A619A6902F004020292029AD1
:1005CC009A6942F008029A619B6903F0080301934F
:1005DC00019B18484FF400534361174E0C23736171
:1005EC00164B0593012506950227079705A900F0E0
:1005FC00B0F840F60C43059306950797089405A9A7
:10060C00304600F0A6F841F210030593042306933C
:10061C0005A9304600F09DF845F2500305930823D8
:10062C000693099505A9064800F093F80BB0F0BDA8
:10063C00001002400010014000080140200020047E
:10064C00000C014082B000238DF8073001238DF897
:10065C000630144B9B68DB4303F04003002B0CBFAC
:10066C00012300238DF8063005D09DF8073043F0A8
:10067C0002038DF807300B4B9B68DB4303F0100330
:10068C00002B0CBF012300238DF8063005D09DF8FC
:10069C00073043F001038DF807309DF8070002B0D6
:1006AC00704700BF000C014010B592B02822002109
:1006BC0008A800F037FC00240394049405940694D5
:1006CC0007941C4B9A6942F480529A619A6902F41D
:1006DC0080520292029A9A6942F004029A619B69D2
:1006EC0003F004030193019B4AF2A0030393092333
:1006FC0004930323059303A90F4800F02AF80894E8
:10070C004FF4827309930A940B940C944FF4007376
:10071C000D9310230E930F9410940A231193074CEE
:10072C0008A9204600F0A0F8236843F0400323609A
:10073C0012B010BD00100240000801400030014012
:10074C00FEE7FEE7FEE7FEE7FEE7704770477047FF
:10075C0070470B68C3F30F2C9CFAACF2B2FA82F21E
:10076C0076E0A2F108044FF00113A34043F080633C
:10077C004C68082C2CD01D0E93FAA3F4B4FA84F414
:10078C00A4004FF00F0E0EFA04F4465926EA0404A6
:10079C0093FAA3FEBEFA8EFE4FEA8E0E4E6806FA50
:1007AC000EFE44EA0E0444514C68012C1ED0092C58
:1007BC001CD001323CFA02F347D00123934013EAD8
:1007CC000C0FF6D0072ACCD840F201139340CFE798
:1007DC000D69C6681C0A26EA132694FAA4F4B4FA26
:1007EC0084F405FA04F43443C460C4E74FEA136E8E
:1007FC0050F80E4093FAA3F5B5FA85F5AD00032633
:10080C0006FA05F524EA050493FAA3F5B5FA85F57D
:10081C00AD008E6806FA05F5254340F80E50CC68FD
:10082C0093FAA3F6B6FA86F6B600042707FA06F68C
:10083C0025EA060593FAA3F3B3FA83F39B0004FAB3
:10084C0003F32B4340F80E30B3E70020F0BD013228
:10085C003CFA02F306D00123934013EA0C0FF6D0B6
:10086C00F0B5AFE700207047036813F0400F29D1B3
:10087C0010B4026822F47F4222F0BF020B684C686D
:10088C0023438C682343CC6823430C6923434C6972
:10089C0023438C692343CC6923430C6A23431343BE
:1008AC000360436823F00403CA8A134343600B6A52
:1008BC00B3F5005F02D0002010BC70478B8C036135
:1008CC000020F9E701207047064BA3FB00239B098E
:1008DC00013B4FF0E0225361002393610523136128
:1008EC00704700BFD34D6210014B1860704700BFBA
:1008FC00040000207047000010B503460C4A0D4957
:10090C000D48006840B10C4800680344521A9342E9
:10091C0006D8094A136010BD0748084C0460F2E77A
:10092C0000F0D6FA0C2303604FF0FF30F3E700BF62
:10093C000050002000040000AC000020D004002077
:10094C00002303E0034AD05401339BB2B3F5806F0C
:10095C00F8D37047B0000020084B10221A6108220F
:10096C005A61074B9B6813F0020FFAD0044B1873B3
:10097C00A3F5205310225A61704700BF00080140B4
:10098C0000300140084B10221A6108221A61074BF3
:10099C009B6813F0020FFAD0044B1873A3F5205385
:1009AC0010225A61704700BF00080140003001401E
:1009BC0008B518B1FF20FFF7C3FF08BD0020FFF7F3
:1009CC00BFFFFAE708B518B1A720FFF7C5FF08BDB0
:1009DC00A620FFF7C1FFFAE738B50446FFF7B0FBD6
:1009EC005FFA80FE002318460FE0094D2A68B5F91E
:1009FC000AC014F8011BB5F90850491B01FB0C2265
:100A0C0012791044C0B20133DBB27345EDD338BD5B
:100A1C00B004002010F0800F1AD13F2918D85AB119
:100A2C00CB0800EBC31001F0070101238B40094AEE
:100A3C00115C194311547047CB0800EBC31001F043
:100A4C00070101238B40034A115C21EA0301115475
:100A5C00704700BFB00000202DE9F04188461746D2
:100A6C00204A1668B2F90A30B2F90820801A00FB45
:100A7C0003F304331E4400252DE0E11905EB0800B7
:100A8C000022C9B2C0B2FFF7C5FF0134E4B2154B66
:100A9C00B3F906309C421CDAE3085A1C1149B1F92F
:100AAC000A30013B05FB03F3B1F9041093FBF1F39E
:100ABC001344F35C04F00702134113F0010FDCD074
:100ACC00E11905EB08000122C9B2C0B2FFF7A2FF81
:100ADC00DBE70135EDB23378AB4201D90024D6E720
:100AEC00BDE8F081B00400202DE9F04106460D462A
:100AFC001746FFF725FB5FFA80F8FE2D05D0FF2D7A
:100B0C000AD0FF2F12D000242FE03046FFF764FFED
:100B1C00C0F17F05EDB2F2E73046FFF75DFFC0F1A3
:100B2C007F0000EBD070C0F34705EAE7114BB3F937
:100B3C000670C7F1400707EBD777C7F34707E2E723
:100B4C003A4629463078FFF787FF0A490B68B1F916
:100B5C000A0016F8012BB1F90810521A02FB0033E7
:100B6C0019790D44EDB20134E4B24445E8D3BDE843
:100B7C00F08100BFB004002038B500250BE004EB79
:100B8C00C5130C4AD05CFFF7FDFE013424B27F2C58
:100B9C00F5DD0135EDB2072D0BD80020FFF7DCFE9B
:100BAC001020FFF7D9FE45F0B000FFF7D5FE00246A
:100BBC00EDE738BDB000002038B52F4C0425656139
:100BCC00032000F00FF92561032000F00BF9AE2093
:100BDC00FFF7C2FED520FFF7BFFE8020FFF7BCFE5B
:100BEC00A820FFF7B9FE3F20FFF7B6FED320FFF792
:100BFC00B3FE0020FFF7B0FE4020FFF7ADFE8D20C6
:100C0C00FFF7AAFE1420FFF7A7FE2020FFF7A4FE93
:100C1C000020FFF7A1FEA020FFF79EFEC820FFF7E3
:100C2C009BFEDA20FFF798FE1220FFF795FE81203D
:100C3C00FFF792FEFF20FFF78FFED920FFF78CFE07
:100C4C00F120FFF789FEDB20FFF786FE4020FFF73F
:100C5C0083FEA420FFF780FEA620FFF77DFEAF20C9
:100C6C00FFF77AFE0020FFF7ADFE0020FFF7A0FE95
:100C7C00FFF782FF012038BD00080140064B1860C9
:100C8C0002789A804278DA8082781A81C2785A8106
:100C9C0000221A73704700BFB004002010B586B054
:100CAC0000230193029303930493059303F1804370
:100CBC0003F50433DA6942F00402DA61DB6903F00C
:100CCC0004030093009B4723ADF804304FF47A7370
:100CDC0003930C4C01A9204600F09CF8236823F0E8
:100CEC0080032360A36823F4804323F00703A360ED
:100CFC00636823F070036360A36823F08003A36030
:100D0C0006B010BD0008004010B586B01E4BDA6965
:100D1C0042F00202DA61DB6903F002030093009BEC
:100D2C0000230193029303930493059341F61F430D
:100D3C00ADF804304FF47A730393144C01A9204698
:100D4C0000F068F8236823F080032360A36823F481
:100D5C00804323F00703A360636823F07003636090
:100D6C00A36823F08003A3606FF001032361E368A1
:100D7C0043F00103E360064B402283F81D234FF040
:100D8C0000521A6006B010BD001002400004004072
:100D9C0000E100E04000074BD86200225A626FF07D
:100DAC0001021A611A6842F001021A60024B012218
:100DBC001A707047000400408D00002008B5084BE5
:100DCC001B6913F0010F09D0054B6FF001021A617A
:100DDC001A6822F001021A60FFF7BCFB08BD00BFC5
:100DEC00000400400A4BD8626FF001021A61002225
:100DFC005A621A6842F001021A60054B1B6913F023
:100E0C00010FFAD0024A136823F0010313607047F4
:100E1C000008004003681A4A90420AD0B0F1804F93
:100E2C0007D0A2F59432904203D002F58062904232
:100E3C0003D123F070034A681343114A90420AD03D
:100E4C00B0F1804F07D0A2F59432904203D002F556
:100E5C008062904203D123F44073CA681343036049
:100E6C008B68C3620B888362054B984205D043693B
:100E7C0043F001034361002070470B690363F6E7FD
:100E8C00002C0140FFF736FD0B480C490C4A00239F
:100E9C0002E0D458C4500433C4188C42F9D3094A24
:100EAC00094C002301E013600432A242FBD300F092
:100EBC0015F8FFF79FF97047000000206C00002028
:100ECC00942400086C000020D0040020FEE70000F1
:100EDC00014B1868704700BF0800002070B5002651
:100EEC000C4D0D4C641BA410A64209D100F0B0FCB3
:100EFC0000260A4D0A4C641BA410A64205D170BDF5
:100F0C0055F8043B98470136EEE755F8043B9847F3
:100F1C000136F2E78C2400088C2400088C2400088D
:100F2C009024000803460244934200D1704703F812
:100F3C00011BF9E70CB430B5174B0C1E1D689DB0A6
:100F4C0008DA8B234FF0FF302B601DB0BDE830402A
:100F5C0002B070474FF40273ADF814300CBF234647
:100F6C0004F1FF33049307934FF6FF73029006903E
:100F7C00ADF81630284621AB209A02A9019300F057
:100F8C0069F8431CBCBF8B232B60002CDDD00022E6
:100F9C00029B1A70D9E700BF080000202DE9F0472A
:100FAC008E6882469E420C4690461F4638D88A89E7
:100FBC0012F4906F32D0256809690133A5EB010951
:100FCC0065694B4405EB450505EBD5756D109D42E8
:100FDC0038BF1D46530531D5294600F06FFB064638
:100FEC0050B90C234FF0FF30CAF80030A38943F0FE
:100FFC004003A381BDE8F0874A46216900F0CEFA90
:10100C00A38923F4906343F08003A38126614E44AB
:10101C0026603E466561A5EB0905A560BE4200D978
:10102C003E4632464146206800F0C6FAA3680020CE
:10103C009B1BA360236833442360DBE72A4600F044
:10104C00B1FB06460028E1D15046216900F0CEFAEA
:10105C00C7E700002DE9F04F98468B8907461B0621
:10106C000D4614469DB00ED50B6963B9402100F0B6
:10107C0025FB2860286120B90C233B604FF0FF3022
:10108C00D1E040236B610023099320238DF8293094
:10109C0030234FF00109CDF80C80DFF8A4818DF8D6
:1010AC002A3023469A4613F8012B0AB1252AF9D186
:1010BC00BAEB040B0BD05B46224629463846FFF7A9
:1010CC006DFF013000F0AA80099A5A4409929AF8EF
:1010DC000030002B00F0A28000234FF0FF32CDE94E
:1010EC0005230AF1010A049307938DF853301A93E0
:1010FC005446052214F8011B514800F041FA049A99
:10110C00D8B9D00644BF20238DF85330110744BF03
:10111C002B238DF853309AF800302A2B15D05446D7
:10112C0000204FF00A0C079A214611F8013B303B86
:10113C00092B4ED9B0B1079214E0A0EB080309FAC1
:10114C0003F31343A2460493D2E7039B191D1B68B8
:10115C000391002BBBBF5B4242F002020793079343
:10116C00B8BF049223782E2B0CD163782A2B35D15F
:10117C00039B02341A1D1B680392002BB8BF4FF05F
:10118C00FF330593DFF8BCA003225046217800F012
:10119C00F7F940B14023A0EB0A0003FA00F0049BDE
:1011AC0001340343049314F8011B062226488DF8DE
:1011BC00281000F0E5F9002838D0244B1BBB039B0A
:1011CC00073323F0070308330393099B3344099334
:1011DC0067E70C4601200CFB0232A5E700234FF019
:1011EC000A0C194601340593204610F8012B303AAD
:1011FC00092A03D9002BC5D00591C3E70446012366
:10120C000CFB0121F0E703AB00932A463846104B48
:10121C0004A9AFF30080421C0646D6D1AB895B060D
:10122C003FF52CAF09981DB0BDE8F08F03AB0093D0
:10123C002A463846064B04A900F07CF8EBE700BFC1
:10124C00582400085E2400086224000800000000F6
:10125C00A90F00082DE9F047164699468A680B69D4
:10126C0007469342B8BF1346336091F843200C46AF
:10127C00DDF820800AB1013333602368990642BF40
:10128C00336802333360256815F0060506D104F186
:10129C00190AE36832689B1AAB4228DC94F84320A5
:1012AC00131E226818BF012392062DD449463846D6
:1012BC0004F14302C047013020D02368E56803F0F5
:1012CC000603042B18BF002532684FF00006A368F4
:1012DC0008BFAD1A226908BF25EAE5759342C4BF61
:1012EC009B1AED181A34B5421AD1002008E00123DC
:1012FC00524649463846C047013003D14FF0FF30C3
:10130C00BDE8F0870135C4E73020E11881F84300CF
:10131C005A1C94F845102244023382F84310C5E756
:10132C000123224649463846C0470130E6D00136F3
:10133C00D9E700002DE9FF470F7E9146782F8046B4
:10134C000C469A460C9D01F1430207D8622F0AD82D
:10135C00002F00F0D980582F00F0A48004F1420532
:10136C0084F842703AE0A7F16303152BF6D801A17B
:10137C0051F823F0D9130008ED1300086913000885
:10138C00691300086913000869130008ED130008BD
:10139C006913000869130008691300086913000831
:1013AC00FB1400081D140008DD1400086913000864
:1013BC00691300081D150008691300081D140008A6
:1013CC006913000869130008E51400082B681A1D3E
:1013DC001B682A6004F1420584F842300123A4E022
:1013EC0020682968060601F104030AD50E682B60F3
:1013FC00002E03DA2D23764284F843300A235E480C
:10140C0019E00E6810F0400F2B6018BF36B2EFE7F2
:10141C002B682068191D2960010601D51E6802E0A1
:10142C004606FBD51E886F2F0CBF08230A23524893
:10143C00002184F843106568002DA8BF2168A560C1
:10144C00A4BF21F0040121600EB9002D4DD015462A
:10145C00B6FBF3F103FB1167C75D05F8017D374659
:10146C00BB420E46F4D9082B0BD12368DE0708D5F6
:10147C00236961689942DEBF302305F8013C05F110
:10148C00FF35521B22614B4621464046CDF800A049
:10149C0003AAFFF7DFFE01304CD14FF0FF3004B050
:1014AC00BDE8F087344881F845702968236851F805
:1014BC00046B29601D0614D5DF0744BF43F02003DD
:1014CC0023601EB9236823F0200323601023AFE7A9
:1014DC00236843F0200323607823284884F84530A0
:1014EC00E3E7590648BFB6B2E6E71546BBE72B68FB
:1014FC002668181D6169286035061B6801D51960BE
:10150C0002E07006FBD51980002315462361BAE76B
:10151C002B6800211A1D2A601D686268284600F09D
:10152C002FF808B1401B606063682361002384F8C6
:10153C004330A8E72A46494640462369D047013044
:10154C00ABD023689B0713D4E068039B9842B8BFC9
:10155C001846A4E70123324649464046D04701309D
:10156C009BD00135E36803995B1AAB42F2DCEBE7E5
:10157C00002504F11906F5E7692400087A2400080F
:10158C00034610B5C9B202449342184601D100205B
:10159C0003E0047801338C42F6D110BD0A44914229
:1015AC0000F1FF3300D1704710B511F8014B914297
:1015BC0003F8014FF9D110BD884210B501EB0204BC
:1015CC0002D98442234607D8431EA14208D011F801
:1015DC00012B03F8012FF8E7014602448A4200D19F
:1015EC0010BD13F8014D02F8014DF7E738B505466B
:1015FC00002940D051F8043C0C1F002BB8BFE41854
:10160C0000F010F91C4A136833B963601460284663
:10161C00BDE8384000F00CB9A34208D92068211865
:10162C008B4201BF19685B6809182160EDE71A4607
:10163C005B680BB1A342FAD911685018A0420BD1C8
:10164C0020680144501883421160E0D118685B682F
:10165C00014411605360DAE702D90C232B60D6E702
:10166C00206821188B4201BF19685B68091821603A
:10167C0063605460CBE738BDC004002070B50E4EDB
:10168C000C463168054611B900F0BCF830602146B3
:10169C00284600F0B7F8431C0AD0C41C24F00304FD
:1016AC00A04207D0211A284600F0ACF8013001D135
:1016BC004FF0FF34204670BDC40400202DE9F041EA
:1016CC00CD1C25F0030508350C2D38BF0C25002D3D
:1016DC00074601DBA94205D90C2300263B603046A6
:1016EC00BDE8F0812E4E00F09DF833681C4634BBEB
:1016FC0029463846FFF7C2FF431C04464DD13468D7
:10170C002646002E40D123683146384604EB0308A8
:10171C0000F078F880453AD1216803356D1A25F030
:10172C00030508350C2D38BF0C2538462946FFF724
:10173C00A5FF01302BD023682B4423600EE02268D8
:10174C00521B1ED40B2A16D96119A342256018BF4F
:10175C005960636808BF316062514B60384604F1D0
:10176C000B0600F065F826F00706231DF21AB6D01A
:10177C009B1BA350B3E76268A3420CBF32605A6054
:10178C00ECE723466468B2E734467668B9E70C2385
:10179C0038463B6000F04CF8A1E72560DEE700BF5F
:1017AC00C00400202DE9F041804614460E4621B9B4
:1017BC001146BDE8F041FFF781BF2AB9FFF716FFCC
:1017CC0025462846BDE8F08100F038F884420746EB
:1017DC0002D8B4EB500F12D821464046FFF76EFFEB
:1017EC0005460028EDD0BC422246314628BF3A4679
:1017FC00FFF7D4FE31464046FFF7F8FEE1E73546E9
:10180C00DFE7000038B50023054D044608462B6081
:10181C00FFF772F8431C02D12B6803B1236038BD6B
:10182C00C8040020014800F011B800BFCC0400200F
:10183C00014800F00CB800BFCC04002051F8043C67
:10184C00181F002BBCBF0B58C0187047704770474F
:10185C00F8B500BFF8BC08BC9E467047F8B500BF91
:08186C00F8BC08BC9E46704761
:10187400656E635F636F756E743D256C6400000074
:101884002D636E743D256C642C2025782C202578DE
:101894002C202578000000002B636E743D256C64B9
:1018A4002C2025782C2025782C2025780000000079
:1018B4000F10201F080000000000000000000000BE
:1018C4000000000000000000000000000000000014
:1018D4000000000300000000FE0C000000000000F7
:1018E40000000000000000000000000000000000F4
:1018F40000000500000E00000000000E00000000C3
:1019040000000000000000000000000000000000D3
:10191400000880009007F0009E009007F0009E00F1
:1019240010000000000000000000000000000000A3
:10193400080000180424084208FF3F4208820404F7
:101944000300000000000000000000000000000C84
:1019540000003C00420042084206BC014000B007BF
:101964004C084208400880070000000000000C00FA
:101974000080035C042208220822085C088004001A
:10198400038004700800080000000000000200004A
:101994000E00000000000000000000000000000035
:1019A400000000000000000000000000050000E04E
:1019B4000718180420024000000000000000000086
:1019C40000000000000000000000000402400420A9
:1019D4001818E007000000000000000000000000EC
:1019E40000000000000000000000060000040038B1
:1019F400001E003800040000000000000000000089
:101A04000000000000000000000900000000800049
:101A140080008000F007800080008000000000004B
:101A24000000000000000000020030000C00000074
:101A340000000000000000000000000000000000A2
:101A4400000000000000000500008000800080000D
:101A54008000000000000000000000000000000002
:101A6400000000000000020000000C000000000064
:101A74000000000000000000000000000000000062
:101A84000000000000060020001C800360001C0011
:101A94000200000000000000000000000000000040
:101AA40000000000080000F8030404020802080211
:101AB400080404F803000000000000000000000017
:101AC40000000005000008000C000400FE0F0000E8
:101AD4000000000000000000000000000000000002
:101AE4000000070000040E020B0209820846083CAD
:101AF40008000000000000000000000000000000DA
:101B040000070000040C420842084208A6049C078F
:101B140000000000000000000000000000000000C1
:101B2400080001C0016001300108010601FE0F0038
:101B34000100000000000000000000000000000799
:101B440000003E0C22082208220842048003000000
:101B54000000000000000000000000000000080079
:101B640000F0034C042408220822086204C0030085
:101B74000000000000000000000000000008000059
:101B840002000200020C820372000E000600000034
:101B94000000000000000000000000000800009C9D
:101BA40007A60C420842084208A60C9C0700000045
:101BB40000000000000000000000000800003800E1
:101BC400440882088208820C4406F80100000000E0
:101BD40000000000000000000000020000300C00C3
:101BE40000000000000000000000000000000000F1
:101BF400000000000000000000020030300C000073
:101C040000000000000000000000000000000000D0
:101C140000000000000000000900000000800080B7
:101C240000400140012002200210040000000000D6
:101C34000000000000000009000000002001200155
:101C440020012001200120012001000000000000EB
:101C54000000000000000900000000100420022021
:101C640002400140018000800000000000000000EC
:101C7400000000000006000004000200C20C220064
:101C84001C00000000000000000000000000000034
:101C9400000000000E0000E00118060408C4092238
:101CA40012121212121211F211020A04020801F0A5
:101CB4000000000A000C0003C001380106010601FF
:101CC4003801C0010003000C000000000000000007
:101CD4000000080000FE0F4208420842084208A41F
:101CE40004180300000000000000000000000000D1
:101CF40000090000F00108020404020802080208B6
:101D040002080404000000000000000000000000BD
:101D14000A0000FE0F020802080208020802080472
:101D2400040802F0010000000000000000000007A9
:101D34000000FE0F42084208420842080208000060
:101D44000000000000000000000000000000090086
:101D540000FE0F4200420042004200420000000028
:101D6400000000000000000000000000000A000065
:101D7400F00108020404020802084208420842086A
:101D8400C407000000000000000000000A0000FE7C
:101D94000F4000400040004000400040004000FE72
:101DA4000F00000000000000000000020000FE0F11
:101DB400000000000000000000000000000000001F
:101DC40000000000000000000000040008000800FB
:101DD40008FE0700000000000000000000000000F2
:101DE400000000000000000000080000FE0F40009A
:101DF400A000100108020404020800000000000012
:101E04000000000000000000070000FE0F000800B2
:101E1400080008000800080000000000000000009E
:101E2400000000000000000D0000FE0F0C00300058
:101E3400C0000003000C000C0003C00030000C00C4
:101E4400FE0F000000000B0000FE0F04000800104D
:101E5400002000C000000100020004FE0F0000008A
:101E640000000000000B0000F0010C06040402084E
:101E740002080208020804040C06F0010000000035
:101E840000000000080000FE0F8200820082008231
:101E940000440038000000000000000000000000C2
:101EA4000000000C0000F0011C07040402080208F2
:101EB40002080208060C0C1EF813001000000000B3
:101EC4000000090000FE0F420042004200C200244C
:101ED40003180400080000000000000000000000D7
:101EE400000800001804240842084208420882043A
:101EF40004030000000000000000000000000000D7
:101F040007020002000200FE0F02000200020000AD
:101F14000000000000000000000000000000000AB3
:101F24000000FE0300040008000800080008000880
:101F34000004FE03000000000000000000000A028C
:101F4400001C0060008003000C000C800360001C77
:101F5400000200000000000000000000000F060066
:101F64003800C001000E000EC00138000600380021
:101F7400C001000E000EC00138000600090208046A
:101F8400041803A0004000A0001803040402080081
:101F940000000000000000000000000902000C0026
:101FA40010006000800F600010000C0002000000B0
:101FB40000000000000000000000090008020C02FC
:101FC4000B8208420822081A0806080208000000CA
:101FD4000000000000000000000500000000FE7F7B
:101FE4000240024000000000000000000000000069
:101FF40000000000000000000602001C00600080D9
:1020040003001C002000000000000000000000008D
:10201400000000000000000302400240FE7F0000B8
:1020240000000000000000000000000000000000AC
:10203400000000000000090000000040003000081B
:10204400000600080030004000000000000000000E
:1020540000000000000700200020002000200020D5
:10206400002000200000000000000000000000002C
:102074000000000004000001000200040000000051
:10208400000000000000000000000000000000004C
:102094000000000700000006200990089008900442
:1020A400E00F00000000000000000000000000003D
:1020B4000000080000FF0F2004100810081008207A
:1020C40004C0030000000000000000000000000045
:1020D40000060000C00320041008100810080000C7
:1020E40000000000000000000000000000000000EC
:1020F400080000C00320041008100810082004FF82
:102104000F000000000000000000000000000007B5
:102114000000C003A004900890089008E0040000A8
:1021240000000000000000000000000000000500A6
:10213400001000FE0F11001100000000000000005C
:102144000000000000000000000000000008000083
:10215400C00320441088108810882044F03F0000F9
:10216400000000000000000000000000080000FF64
:102174000F20001000100010002000C00F0000000D
:102184000000000000000000000000020000F30F47
:10219400000000000000000000000000000000003B
:1021A400000000000000000000000300800040F375
:1021B4003F000000000000000000000000000000DC
:1021C400000000000000000000070000FF0F800076
:1021D400400120022004100800000000000000005C
:1021E4000000000000000000020000FF0F000000DB
:1021F40000000000000000000000000000000000DB
:10220400000000000000000C0000F00F200010008F
:1022140010001000E00F2000100010001000E00F6C
:10222400000000000000080000F00F200010001063
:102234000010002000C00F0000000000000000009B
:102244000000000000080000C0032004100810086B
:1022540010082004C003000000000000000000007B
:1022640000000000080000F0FF200410081008100F
:10227400082004C00300000000000000000000006B
:10228400000000080000C003200410081008100813
:102294002004F0FF00000000000000000000000027
:1022A4000000050000F00F200010001000000000E6
:1022B400000000000000000000000000000000001A
:1022C4000006000060049008900810092006000031
:1022D40000000000000000000000000000000000FA
:1022E4000500001000FC07100810080000000000A2
:1022F40000000000000000000000000000000008D2
:102304000000F00300040008000800080004F00FB7
:1023140000000000000000000000000000000810A1
:102324000060008003000C000C80036000100000BB
:10233400000000000000000000000000000C10007D
:10234400E0000003000C8003700070008003000CA8
:102354000003E00010000000000000000710082047
:102364000440028001400220041008000000000024
:102374000000000000000000000000081080E08061
:102384000043003C000C0003E000100000000000CB
:1023940000000000000000000000071008100C10EE
:1023A4000A900950083008100800000000000000DE
:1023B40000000000000000000004000080007C3FDA
:1023C40002400000000000000000000000000000C7
:1023D4000000000000000000020000FFFF000000F9
:1023E40000000000000000000000000000000000E9
:1023F4000000000000000004000002407C3F800058
:1024040000000000000000000000000000000000C8
:10241400000000000000090000800040004000406F
:1024240000800080008000400000000000000000E8
:10243400000000000004FF0700040004FF07000080
:102444000000000000000000000000000000000088
:1024540000000000232D302B2000686C4C006566C2
:1024640067454647003031323334353637383941E1
:1024740042434445460030313233343536373839F7
:082484006162636465660000FB
:04248C003101000812
:042490000D01000832
:10249400030000000024F4000C00002000000000F1
:1024A4000000000000000000000000000000000028
:1024B4000000000000000000000000000000000018
:1024C4000000000000000000000000000000000008
:1024D40000000000000000000000000000000000F8
:1024E40000000000000000000000000000000000E8
:0C24F400000000000000000000000000DC
:0400000508000E9150
:00000001FF
